:020000040800F2
:1000000000280020C1190008A5180008AB18000836
:10001000B1180008B7180008BD180008000000005B
:10002000000000000000000000000000C3180008ED
:10003000CF18000800000000DB180008E7180008CF
:10004000091A0008091A0008091A0008091A000804
:10005000091A0008091A0008091A0008091A0008F4
:10006000091A0008091A0008091A0008091A0008E4
:10007000091A0008091A0008091A0008091A0008D4
:10008000091A0008091A0008091A0008091A0008C4
:10009000091A0008091A0008091A0008091A0008B4
:1000A000091A0008091A0008091A0008091A0008A4
:1000B000F5180008091A000800000000091A0008D5
:1000C000091A00080000000000000000091A0008DA
:1000D00000000000091A0008091A000800000000CA
:1000E000091A0008091A0008091A0008000000008F
:1000F0000000000000000000000000000000000000
:0C01000000000000000000005FF808F1A3
:10010C0010B5054C237833B9044B13B10448AFF345
:10011C0000800123237010BD24000020000000008B
:10012C009830000808B5034B1BB103490348AFF3E3
:10013C00008008BD00000000280000209830000856
:10014C0080B483B000AF7860094A7B6852F82330E2
:10015C00012B06D1064A7B68002142F823100123AB
:10016C0000E0002318460C37BD4680BC704700BF2A
:10017C009C00002080B582B000AF00237B6075E04E
:10018C003E4A7B68134419783D4A7B6813440A46FF
:10019C001A703C4A7B6813441978384A7B681344BC
:1001AC000A461A70384A7B6852F8232037497B6814
:1001BC0031F813301946104601F030FF034619464A
:1001CC00304A7B6813440A461A702D4A7B681344E4
:1001DC001A782A497B680B441B789A4243D1274AE8
:1001EC007B6813441A7827497B680B441B789A4226
:1001FC0039D1274A7B6813441A7822497B680B440F
:10020C001B789A4219D01F4A7B6813441978204AEC
:10021C007B6813440A461A701A4A7B6813441B788D
:10022C00002B20D11B4A7B68012142F823101A4A6B
:10023C007B68002142F8231015E0174A7B6852F8BE
:10024C0023305A1C14497B6841F82320124A7B68DE
:10025C0052F82320114B1B689A4204D10C4A7B683C
:10026C00134401221A707B6801337B607B68022B7C
:10027C0086DD00BF00BF0837BD4680BD44000020AE
:10028C004000002048000020040000201000002046
:10029C004C0000209C000020B40000200000002036
:1002AC0080B500AFAB4B1B68042B00F2468101A25A
:1002BC0052F823F0D5020008BF030008F70300082A
:1002CC002F040008670400080020FFF739FF0346DD
:1002DC00002B00F034819F4B01221A609E4B0222AE
:1002EC001A609E4B03221A609D4B05221A609A4B92
:1002FC001A689A4B1B681A44994B1B681344994A09
:10030C00136001224FF48051974801F09EFE0122A8
:10031C004FF48041944801F098FE914B1B68934A2E
:10032C0082FB03129210DB17D31A914A13608C4B89
:10033C0019688E4B83FB01239A10CB17D21A1346E4
:10034C009B0013445B00CA1A8A4B1A60834B1B68D0
:10035C00864A82FB03129210DB17D31A864A13606B
:10036C007E4B1968814B83FB01239A10CB17D21A51
:10037C0013469B0013445B00CA1A804B1A60764BE1
:10038C001B687A4A82FB03129210DB17D31A7C4A41
:10039C001360714B1968754B83FB01239A10CB17B3
:1003AC00D21A13469B0013445B00CA1A754B1A6091
:1003BC00C5E000F027FC0020FFF7C2FE0346002B2F
:1003CC0000F0BF80634B02221A6000224FF4805170
:1003DC00654801F03AFE01224FF48041624801F079
:1003EC0034FE002000F0D0F8ABE000F0D5FF002088
:1003FC00FFF7A6FE0346002B00F0A580554B032209
:10040C001A6000224FF48051574801F01EFE012261
:10041C004FF48041544801F018FE002000F0B4F86D
:10042C0091E001F0C9F80020FFF78AFE0346002B8B
:10043C0000F08B80474B04221A6000224FF480514D
:10044C00494801F002FE01224FF48041464801F078
:10045C00FCFD002000F098F877E001F0BDF90020D9
:10046C00FFF76EFE0346002B71D03D4B1B683F4AD5
:10047C0082FB03129210DB17D31A3D4A1360384BE0
:10048C0019683A4B83FB01239A10CB17D21A1346E7
:10049C009B0013445B00CA1A364B1A602F4B1B6827
:1004AC00324A82FB03129210DB17D31A324A1360C2
:1004BC002A4B19682D4B83FB01239A10CB17D21AA8
:1004CC0013469B0013445B00CA1A2C4B1A60224B38
:1004DC001B68264A82FB03129210DB17D31A284A98
:1004EC0013601D4B1968214B83FB01239A10CB170A
:1004FC00D21A13469B0013445B00CA1A214B1A6094
:10050C00154B1A68154B1B681A44154B1B68134482
:10051C00144A13600F4B01221A6000224FF48051D1
:10052C00114801F092FD01224FF480410E4801F078
:10053C008CFD002000F028F809E000BF08E000BFA7
:10054C0006E000BF04E000BF02E000BF00E000BF17
:10055C0000BF80BD500000205C0000206000002027
:10056C0058000020540000200008014067666666B1
:10057C0064000020680000206C0000207000002047
:10058C00740000207800002080B58AB000AF78603D
:10059C0000237B6200233B620023FB610023BB61D1
:1005AC0000237B6100233B610023FB607B68092BEC
:1005BC0000F2AE8001A252F823F000BFF105000852
:1005CC000F0600082D0600084B06000869060008F7
:1005DC0087060008A5060008C3060008E106000807
:1005EC00FF06000800237B6200233B620023FB61B3
:1005FC000023BB6100237B6100233B610123FB6073
:10060C0095E001237B6200233B620023FB61012305
:10061C00BB6101237B6101233B610123FB6086E00D
:10062C0000237B6200233B620123FB610023BB613F
:10063C0000237B6101233B610023FB6077E00023F7
:10064C007B6200233B620023FB610023BB6101231F
:10065C007B6101233B610023FB6068E001237B622B
:10066C0000233B620023FB610123BB6101237B61FF
:10067C0000233B610023FB6059E000237B620123D4
:10068C003B620023FB610023BB6101237B610023E0
:10069C003B610023FB604AE000237B6201233B6249
:1006AC000023FB610023BB6100237B6100233B61C2
:1006BC000023FB603BE000237B6200233B620023B2
:1006CC00FB610123BB6101237B6101233B6101239E
:1006DC00FB602CE000237B6200233B620023FB6168
:1006EC000023BB6100237B6100233B610023FB6083
:1006FC001DE000237B6200233B620023FB6100238F
:10070C00BB6101237B6100233B610023FB600EE096
:10071C0001237B6201233B620123FB610123BB614B
:10072C0001237B6101233B610023FB6000BF7B6ADB
:10073C00DBB21A460121184801F087FC3B6ADBB298
:10074C001A460221144801F080FCFB69DBB21A4600
:10075C000421114801F079FCBB69DBB21A4608216F
:10076C000D4801F072FC7B69DBB21A4610210A4875
:10077C0001F06BFC3B69DBB21A462021064801F004
:10078C0064FCFB68DBB21A464021034801F05DFCB7
:10079C0000BF2837BD4680BD000C014080B58AB033
:1007AC0000AF786000237B6200233B620023FB6177
:1007BC000023BB6100237B6100233B610023FB60B2
:1007CC007B68092B00F2AE8001A252F823F000BF27
:1007DC000508000823080008410800085F08000805
:1007EC007D0800089B080008B9080008D708000815
:1007FC00F50800081309000800237B6200233B6204
:10080C000023FB610023BB6100237B6100233B6160
:10081C000123FB6095E001237B6200233B620023F4
:10082C00FB610123BB6101237B6101233B6101233C
:10083C00FB6086E000237B6200233B620123FB61AB
:10084C000023BB6100237B6101233B610023FB6020
:10085C0077E000237B6200233B620023FB610023D3
:10086C00BB6101237B6101233B610023FB6068E0DA
:10087C0001237B6200233B620023FB610123BB61EC
:10088C0001237B6100233B610023FB6059E00023C3
:10089C007B6201233B620023FB610023BB610123CC
:1008AC007B6100233B610023FB604AE000237B62F9
:1008BC0001233B620023FB610023BB6100237B61AE
:1008CC0000233B610023FB603BE000237B620023A1
:1008DC003B620023FB610123BB6101237B6101238C
:1008EC003B610123FB602CE000237B6200233B6215
:1008FC000023FB610023BB6100237B6100233B6170
:10090C000023FB601DE000237B6200233B6200237D
:10091C00FB610023BB6101237B6100233B6100234E
:10092C00FB600EE001237B6201233B620123FB6130
:10093C000123BB6101237B6101233B610023FB602D
:10094C0000BF7B6ADBB21A4680211B4801F07DFB9D
:10095C003B6ADBB21A464FF48071174801F075FB05
:10096C00FB69DBB21A464FF40071134801F06DFBC2
:10097C00BB69DBB21A464FF480610F4801F065FB8E
:10098C007B69DBB21A464FF400610B4801F05DFB4A
:10099C003B69DBB21A464FF48051074801F055FB16
:1009AC00FB68DBB21A464FF40051034801F04DFBD3
:1009BC0000BF2837BD4680BD000C014080B500AF9C
:1009CC0001F01EF800F012F800F098F800F04AF868
:1009DC00044801F097FF044B00221A60FFF760FCFB
:1009EC00FCE700BFC00000205000002080B590B094
:1009FC0000AF07F1180328220021184602F03EFB35
:100A0C003B1D00221A605A609A60DA601A61022358
:100A1C00BB610123BB621023FB6200237B6307F1E4
:100A2C001803184601F042FB0346002B01D000F0DE
:100A3C00E3F80F237B600023BB600023FB600023E3
:100A4C003B6100237B613B1D0021184601F0AEFD8C
:100A5C000346002B01D000F0CFF800BF4037BD4655
:100A6C0080BD000080B586B000AF07F108030022FE
:100A7C001A605A609A60DA603B4600221A605A602B
:100A8C001D4B4FF080421A601B4B41F63F725A606F
:100A9C00194B00229A60184B0922DA60164B00227F
:100AAC001A61154B00229A61134801F0DBFE0346D4
:100ABC00002B01D000F0A0F84FF48053BB6007F17D
:100ACC00080319460C4802F071F80346002B01D0BC
:100ADC0000F092F800233B6000237B603B461946F4
:100AEC00054802F03DFA0346002B01D000F084F8D3
:100AFC0000BF1837BD4680BDC000002080B588B04F
:100B0C0000AF07F1100300221A605A609A60DA6095
:100B1C002F4B9B692E4A43F0100393612C4B9B691E
:100B2C0003F01003FB60FB68294B9B69284A43F0D8
:100B3C0004039361264B9B6903F00403BB60BB6801
:100B4C00234B9B69224A43F008039361204B9B691A
:100B5C0003F008037B607B6800224FF27E011D4886
:100B6C0001F073FA002243F6FF711B4801F06DFA95
:100B7C004FF460433B6100237B610123BB6107F1B0
:100B8C0010031946154801F0CFF84FF27E033B6174
:100B9C0001237B610023BB610223FB6107F110037E
:100BAC0019460C4801F0C0F843F6FF733B61012372
:100BBC007B610023BB610223FB6107F11003194623
:100BCC00054801F0B1F800BF2037BD4680BD00BF1D
:100BDC000010024000080140000C014000100140D0
:100BEC0080B582B000AF786000F08EFEFFF7C2FADD
:100BFC0000BF0837BD4680BD80B400AF72B600BFE1
:100C0C00FEE7000080B500AFA04B1A68A04B1B6834
:100C1C009A4240F35381012202219E4801F015FAB9
:100C2C00002208219B4801F010FA00220421994867
:100C3C0001F00BFA00224FF40051964801F005FA2E
:100C4C0001224FF40041934801F0FFF900224FF4C8
:100C5C008051904801F0F9F901224FF480418D4800
:100C6C0001F0F3F98C4B1B685A1E8B490A6018462D
:100C7C00FFF794FD894B1B681846FFF785FC874BE3
:100C8C001B68002B0CDD844B1B68002B25DA824B78
:100C9C0009221A60814B1B68013B804A13601CE0DF
:100CAC007D4B1B68002B18DC794B19687C4B83FB44
:100CBC0001239A10CB17D21A13469B0013445B00E6
:100CCC00CA1A754B1A60724B1B68754A82FB031269
:100CDC009210DB17D31A714A1360962000F0F2FEC3
:100CEC006B4B1A686F4B1B681A44684B1B689A4213
:100CFC0065DA00221021674801F0A7F90022402193
:100D0C00644801F0A2F901222021624801F09DF90A
:100D1C0001224FF400515F4801F097F900224FF483
:100D2C0000415C4801F091F901224FF4805159487F
:100D3C0001F08BF900224FF48041564801F085F9FF
:100D4C00594B1B685A1E58490A601846FFF726FD76
:100D5C00564B1B681846FFF717FC544B1B68002BAF
:100D6C000CDD514B1B68002B25DA4F4B09221A6006
:100D7C004E4B1B68013B4D4A13601CE04A4B1B68F1
:100D8C00002B18DC4A4B1968454B83FB01239A1046
:100D9C00CB17D21A13469B0013445B00CA1A424B62
:100DAC001A60434B1B683E4A82FB03129210DB17FE
:100DBC00D31A3E4A1360962000F084FEB4E1002260
:100DCC001021344801F041F901224021314801F051
:100DDC003CF9002220212F4801F037F901224FF471
:100DEC0000512C4801F031F900224FF40041294800
:100DFC0001F02BF901224FF48051264801F025F91E
:100E0C0000224FF48041234801F01FF9294B1B6845
:100E1C005A1E28490A601846FFF7C0FC264B1B686F
:100E2C001846FFF7B1FB244B1B68002B0CDD214B44
:100E3C001B68002B25DA1F4B09221A601E4B1B68FE
:100E4C00013B1D4A13601CE01A4B1B68002B18DC7D
:100E5C00144B1968124B83FB01239A10CB17D21A2F
:100E6C0013469B0013445B00CA1A124B1A600D4BBD
:100E7C001B680B4A82FB03129210DB17D31A0E4A23
:100E8C001360962000F01EFE4EE100BF54000020BF
:100E9C005800002000080140680000206400002079
:100EAC00676666665C000020700000206C00002005
:100EBC006000002078000020740000200122102126
:100ECC00A64801F0C2F800224021A44801F0BDF868
:100EDC0000222021A14801F0B8F801224FF4005162
:100EEC009E4801F0B2F800224FF400419B4801F0FB
:100EFC00ACF801224FF48051984801F0A6F800227A
:100F0C004FF48041954801F0A0F8954B1B685A1E90
:100F1C0093490A601846FFF741FC924B1B68184630
:100F2C00FFF732FB8F4B1B68002B0CDD8C4B1B68C7
:100F3C00002B25DA8A4B09221A608A4B1B68013B6D
:100F4C00884A13601CE0864B1B68002B18DC864B10
:100F5C001968864B83FB01239A10CB17D21A1346C0
:100F6C009B0013445B00CA1A7D4B1A607E4B1B68B6
:100F7C007E4A82FB03129210DB17D31A794A136054
:100F8C00962000F09FFD7A4B1A687A4B1B689A42A8
:100F9C0065DD00220221714801F057F8002208217A
:100FAC006E4801F052F8012204216C4801F04DF812
:100FBC0000224FF40051694801F047F801224FF428
:100FCC000041664801F041F800224FF4805163481B
:100FDC0001F03BF801224FF48041604801F035F8F4
:100FEC00654B1B685A1E64490A601846FFF7D6FB0E
:100FFC00624B1B681846FFF7C7FA604B1B68002B47
:10100C000CDD5D4B1B68002B25DA5B4B09221A604B
:10101C005A4B1B68013B594A13601CE0564B1B682A
:10102C00002B18DC564B1968504B83FB01239A108C
:10103C00CB17D21A13469B0013445B00CA1A4E4BB3
:10104C001A604F4B1B68494A82FB03129210DB1744
:10105C00D31A4A4A1360962000F034FD64E0002253
:10106C0002213E4800F0F1FF012208213B4800F02C
:10107C00ECFF00220421394800F0E7FF00224FF476
:10108C000051364800F0E1FF01224FF40041334893
:10109C0000F0DBFF00224FF48051304800F0D5FF08
:1010AC0001224FF480412D4800F0CFFF354B1B68D7
:1010BC005A1E34490A601846FFF770FB324B1B6806
:1010CC001846FFF761FA304B1B68002B0CDD2D4BDB
:1010DC001B68002B25DA2B4B09221A602A4B1B6844
:1010EC00013B294A13601CE0264B1B68002B18DCC3
:1010FC00204B19681D4B83FB01239A10CB17D21A76
:10110C0013469B0013445B00CA1A1E4B1A60194B02
:10111C001B68164A82FB03129210DB17D31A1A4A69
:10112C001360962000F0CEFC114B1B68013B104A5B
:10113C0013600F4B1B68002B09DC0E4B1A68104B0D
:10114C001B681A44084B1B681344094A13604FF47C
:10115C007A7000F0B7FC00BF80BD00BF00080140F2
:10116C006800002064000020580000206766666656
:10117C00540000205C000020700000206C00002057
:10118C0060000020780000207400002080B500AFC3
:10119C000221104800F071FF10210E4800F06DFF85
:1011AC00002204210B4800F050FF002220210948A6
:1011BC0000F04BFF00220821064800F046FF0022F9
:1011CC004021044800F041FF4FF4FA7000F07AFC23
:1011DC0000BF80BD0008014080B582B000AF2E4B2F
:1011EC001B682E4A82FB03129210DB17D31A7B600A
:1011FC00294B1A68294B83FB02139910D317C91A70
:10120C000B469B000B445B00D31A3B6000224FF44F
:10121C000051234800F019FF01224FF400412048EF
:10122C0000F013FF00224FF480511D4800F00DFF19
:10123C0001224FF480411A4800F007FF0020FFF70D
:10124C00A3F90220FFF7AAFA962000F03BFC01223A
:10125C004FF40051124800F0F8FE00224FF4004108
:10126C000F4800F0F2FE01224FF480510C4800F0C0
:10127C00ECFE00224FF48041094800F0E6FE78684D
:10128C00FFF782F93868FFF789FA962000F01AFC0C
:10129C0000BF0837BD4680BD5800002067666666F3
:1012AC000008014080B582B000AF0120FEF748FF76
:1012BC000346012B3DD1324B1B68022B39D1314BEC
:1012CC001B6801332F4A13602E4B1B682E4A82FB7E
:1012DC0003129210DB17D31A7B602A4B1A682A4B25
:1012EC0083FB02139910D317C91A0B469B000B44AE
:1012FC005B00D31A3B6001224FF40051234800F0ED
:10130C00A4FE00224FF40041204800F09EFE012272
:10131C004FF480511D4800F098FE00224FF480419C
:10132C001A4800F092FE7868FFF72EF93868FFF73C
:10133C0035FA0220FEF704FF0346012B1CD1104B9B
:10134C001B68022B18D10F4B1B680F4A82FB031230
:10135C009210DB17D31A0E4A13600A4B19680A4B0A
:10136C0083FB01239A10CB17D21A13469B0013440C
:10137C005B00CA1A074B1A6000BF0837BD4680BD18
:10138C005000002058000020676666660008014087
:10139C00640000206800002080B500AFFFF71CFF40
:1013AC00FFF7F4FEFFF77EFF00BF80BD80B500AFF6
:1013BC000821104800F061FE40210E4800F05DFE4F
:1013CC00002204210B4800F040FE00222021094895
:1013DC0000F03BFE00221021064800F036FE0022F1
:1013EC000221044800F031FE4FF4FA7000F06AFB61
:1013FC0000BF80BD0008014080B582B000AF2E4B0D
:10140C001B682E4A82FB03129210DB17D31A7B60E7
:10141C00294B1A68294B83FB02139910D317C91A4D
:10142C000B469B000B445B00D31A3B6000224FF42D
:10143C000051234800F009FE01224FF400412048DE
:10144C0000F003FE00224FF480511D4800F0FDFD1A
:10145C0001224FF480411A4800F0F7FD0020FFF7FD
:10146C0093F80320FFF79AF9962000F02BFB01224A
:10147C004FF40051124800F0E8FD00224FF40041F7
:10148C000F4800F0E2FD01224FF480510C4800F0AF
:10149C00DCFD00224FF48041094800F0D6FD78684D
:1014AC00FFF772F83868FFF779F9962000F00AFB1D
:1014BC0000BF0837BD4680BD5C00002067666666CD
:1014CC000008014080B582B000AF0120FEF738FE65
:1014DC000346012B3DD1324B1B68032B39D1314BC9
:1014EC001B6801332F4A13602E4B1B682E4A82FB5C
:1014FC0003129210DB17D31A7B602A4B1A682A4B03
:10150C0083FB02139910D317C91A0B469B000B448B
:10151C005B00D31A3B6001224FF40051234800F0CA
:10152C0094FD00224FF40041204800F08EFD012272
:10153C004FF480511D4800F088FD00224FF480418B
:10154C001A4800F082FD7868FFF71EF83868FFF73C
:10155C0025F90220FEF7F4FD0346012B1CD1104B9C
:10156C001B68032B18D10F4B1B680F4A82FB03120D
:10157C009210DB17D31A0E4A13600A4B19680A4BE8
:10158C0083FB01239A10CB17D21A13469B001344EA
:10159C005B00CA1A074B1A6000BF0837BD4680BDF6
:1015AC00500000205C000020676666660008014061
:1015BC006C0000207000002080B500AFFFF71CFF0E
:1015CC00FFF7F4FEFFF77EFF00BF80BD80B500AFD4
:1015DC000421104800F051FD20210E4800F04DFD73
:1015EC00002202210B4800F030FD00221021094896
:1015FC0000F02BFD00220821064800F026FD0022F9
:10160C004021044800F021FD4FF4FA7000F05AFA22
:10161C0000BF80BD0008014080B582B000AF2E4BEA
:10162C001B682E4A82FB03129210DB17D31A7B60C5
:10163C00294B1A68294B83FB02139910D317C91A2B
:10164C000B469B000B445B00D31A3B6000224FF40B
:10165C000051234800F0F9FC01224FF400412048CE
:10166C0000F0F3FC00224FF480511D4800F0EDFC1B
:10167C0001224FF480411A4800F0E7FC0020FEF7ED
:10168C0083FF0420FFF78AF8962000F01BFA012252
:10169C004FF40051124800F0D8FC00224FF40041E6
:1016AC000F4800F0D2FC01224FF480510C4800F09E
:1016BC00CCFC00224FF48041094800F0C6FC78684D
:1016CC00FEF762FF3868FFF769F8962000F0FAF928
:1016DC0000BF0837BD4680BD6000002067666666A7
:1016EC000008014080B582B000AF0120FEF728FD54
:1016FC000346012B3DD1324B1B68042B39D1314BA6
:10170C001B6801332F4A13602E4B1B682E4A82FB39
:10171C0003129210DB17D31A7B602A4B1A682A4BE0
:10172C0083FB02139910D317C91A0B469B000B4469
:10173C005B00D31A3B6001224FF40051234800F0A8
:10174C0084FC00224FF40041204800F07EFC012272
:10175C004FF480511D4800F078FC00224FF480417A
:10176C001A4800F072FC7868FEF70EFF3868FFF735
:10177C0015F80220FEF7E4FC0346012B1CD1104B9C
:10178C001B68042B18D10F4B1B680F4A82FB0312EA
:10179C009210DB17D31A0E4A13600A4B19680A4BC6
:1017AC0083FB01239A10CB17D21A13469B001344C8
:1017BC005B00CA1A074B1A6000BF0837BD4680BDD4
:1017CC00500000206000002067666666000801403B
:1017DC00740000207800002080B500AFFFF71CFFDC
:1017EC00FFF7F4FEFFF77EFF00BF80BD80B485B02D
:1017FC0000AF154B9B69144A43F001039361124BE4
:10180C009B6903F00103BB60BB680F4BDB690E4A9D
:10181C0043F08053D3610C4BDB6903F080537B6046
:10182C007B680A4B5B68FB60FB6823F0E063FB6042
:10183C00FB6843F08063FB60044AFB68536000BFA5
:10184C001437BD4680BC70470010024000000140B8
:10185C0080B584B000AF78607B681B68B3F1804FB3
:10186C0013D10C4BDB690B4A43F00103D361094BD9
:10187C00DB6903F00103FB60FB68002200211C20E4
:10188C0000F01BFA1C2000F034FA00BF1037BD46E4
:10189C0080BD00BF0010024080B400AFFEE780B4F2
:1018AC0000AFFEE780B400AFFEE780B400AFFEE708
:1018BC0080B400AFFEE780B400AF00BFBD4680BC73
:1018CC00704780B400AF00BFBD4680BC704780B489
:1018DC0000AF00BFBD4680BC704780B500AF00F0C4
:1018EC00D5F800BF80BD000080B500AF024801F004
:1018FC0055F800BF80BD00BFC000002080B400AF11
:10190C0000BFBD4680BC704780B400AF214B1B6844
:10191C00002B0BDD1F4B1B68013B1E4A13601D4B3C
:10192C001B68002B02DC1C4B01221A601B4B1B6832
:10193C00002B0BDD194B1B68013B184A1360174B2E
:10194C001B68002B02DC164B01221A60154B1B681E
:10195C00002B0BDD134B1B68013B124A1360114B20
:10196C001B68002B02DC104B01221A600F4B1B680A
:10197C00002B0BDD0D4B1B68013B0C4A13600B4B12
:10198C001B68002B02DC0A4B01221A6000BFBD460B
:10199C0080BC70477C000020800000208400002068
:1019AC00880000208C000020900000209400002073
:1019BC0098000020FFF7A2FF0B480C490C4A0023AB
:1019CC0002E0D458C4500433C4188C42F9D3094AE9
:1019DC00094C002301E013600432A242FBD301F056
:1019EC0029FBFEF7EBFF70470000002024000020CD
:1019FC00DC300008240000200C010020FEE7000071
:101A0C0080B500AF084B1B68074A43F01003136006
:101A1C00032000F047F90F2000F008F8FFF7E6FE6E
:101A2C000023184680BD00BF0020024080B582B064
:101A3C0000AF7860124B1A68124B1B7819464FF4A2
:101A4C007A73B3FBF1F3B2FBF3F3184600F05FF9D2
:101A5C000346002B01D001230EE07B680F2B0AD824
:101A6C00002279684FF0FF3000F027F9064A7B68B6
:101A7C001360002300E0012318460837BD4680BDE3
:101A8C0018000020200000201C00002080B400AFB3
:101A9C00054B1B781A46054B1B681344034A13600D
:101AAC0000BFBD4680BC704720000020080100200C
:101ABC0080B400AF024B1B681846BD4680BC704713
:101ACC000801002080B584B000AF7860FFF7F0FF0C
:101ADC00B8607B68FB60FB68B3F1FF3F05D00A4B35
:101AEC001B781A46FB681344FB6000BFFFF7E0FF4E
:101AFC000246BB68D31AFA689A42F7D800BF00BFF7
:101B0C001037BD4680BD00BF2000002080B485B0DA
:101B1C0000AF78607B6803F00703FB600C4BDB685D
:101B2C00BB60BA684FF6FF031340BB60FB681A0238
:101B3C00BB68134343F0BF6343F40033BB60044AF8
:101B4C00BB68D36000BF1437BD4680BC704700BF74
:101B5C0000ED00E080B400AF044BDB681B0A03F01F
:101B6C0007031846BD4680BC704700BF00ED00E07F
:101B7C0080B483B000AF0346FB7197F90730002B9C
:101B8C000BDBFB7903F01F02064997F907305B0961
:101B9C00012000FA02F241F8232000BF0C37BD46A9
:101BAC0080BC704700E100E080B483B000AF034616
:101BBC003960FB7197F90730002B0ADB3B68DAB20E
:101BCC000C4997F907301201D2B20B4483F8002369
:101BDC000AE03B68DAB20849FB7903F00F03043BD7
:101BEC001201D2B20B441A7600BF0C37BD4680BC32
:101BFC00704700BF00E100E000ED00E080B489B068
:101C0C0000AFF860B9607A60FB6803F00703FB6112
:101C1C00FB69C3F10703042B28BF0423BB61FB69D9
:101C2C000433062B02D9FB69033B00E000237B61E4
:101C3C004FF0FF32BB6902FA03F3DA43BB681A4078
:101C4C007B699A404FF0FF317B6901FA03F3D9436A
:101C5C007B680B40134318462437BD4680BC704745
:101C6C0080B582B000AF78607B68013BB3F1807FB8
:101C7C0001D301230FE00A4A7B68013B53600F211B
:101C8C004FF0FF30FFF790FF054B00229A60044B9A
:101C9C0007221A60002318460837BD4680BD00BFD6
:101CAC0010E000E080B582B000AF78607868FFF794
:101CBC002DFF00BF0837BD4680BD80B586B000AF94
:101CCC000346B9607A60FB7300237B61FFF742FF28
:101CDC0078617A68B9687869FFF790FF024697F9DE
:101CEC000F3011461846FFF75FFF00BF1837BD468F
:101CFC0080BD80B582B000AF0346FB7197F9073009
:101D0C001846FFF735FF00BF0837BD4680BD80B5CC
:101D1C0082B000AF78607868FFF7A2FF03461846E0
:101D2C000837BD4680BD000080B48BB000AF786032
:101D3C00396000237B6200233B6248E101227B6A0D
:101D4C0002FA03F3FB613B681B68FA691340BB6141
:101D5C00BA69FB699A4240F037813B685B68A34AD9
:101D6C0093425ED0A14A934275D8A14A934258D06F
:101D7C009F4A93426FD89F4A934252D09D4A9342B6
:101D8C0069D89D4A93424CD09B4A934263D89B4A54
:101D9C00934246D0994A93425DD8122B2AD8122BE3
:101DAC0059D801A252F823F02F1E0008091E000872
:101DBC001B1E00085D1E0008631E0008631E000841
:101DCC00631E0008631E0008631E0008631E0008E3
:101DDC00631E0008631E0008631E0008631E0008D3
:101DEC00631E0008631E0008631E0008111E000815
:101DFC00251E0008824A934213D02CE03B68DB6816
:101E0C003B6229E03B68DB6804333B6224E03B68BF
:101E1C00DB6808333B621FE03B68DB680C333B62DA
:101E2C001AE03B689B68002B02D104233B6213E051
:101E3C003B689B68012B05D108233B627B68FA69E0
:101E4C001A6109E008233B627B68FA695A6103E076
:101E5C0000233B6200E000BFBB69FF2B01D87B680D
:101E6C0001E07B6804337B61BB69FF2B02D87B6A82
:101E7C009B0002E07B6A083B9B003B617B691A6814
:101E8C000F213B6901FA03F3DB431A40396A3B69C2
:101E9C0001FA03F31A437B691A603B685B6803F031
:101EAC008053002B00F09080564B9B69554A43F0B1
:101EBC0001039361534B9B6903F00103BB60BB6847
:101ECC00514A7B6A9B08023352F82330FB607B6AD1
:101EDC0003F003039B000F2202FA03F3DB43FA68BF
:101EEC001340FB607B68494A93420DD07B68484A9B
:101EFC00934207D07B68474A934201D1022304E006
:101F0C00032302E0012300E000237A6A02F00302BB
:101F1C0092009340FA681343FB603B497B6A9B0831
:101F2C000233FA6841F823203B685B6803F48013A2
:101F3C00002B06D0384B9A683749BB6913438B602A
:101F4C0006E0354B9A68BB69DB43334913408B6021
:101F5C003B685B6803F40013002B06D02E4BDA6849
:101F6C002D49BB691343CB6006E02B4BDA68BB6988
:101F7C00DB4329491340CB603B685B6803F40033B7
:101F8C00002B06D0244B5A682349BB6913434B6082
:101F9C0006E0214B5A68BB69DB431F4913404B6079
:101FAC003B685B6803F48033002B06D01A4B1A682D
:101FBC001949BB6913430B6006E0174B1A68BB69E0
:101FCC00DB43154913400B607B6A01337B623B6832
:101FDC001A687B6A22FA03F3002B7FF4AFAE00BFC2
:101FEC0000BF2C37BD4680BC704700BF00003210CC
:101FFC00000031100000221000002110000012100F
:10200C0000001110001002400000014000080140C7
:10201C00000C0140001001400004014080B485B068
:10202C0000AF78600B467B807B689A687B88134096
:10203C00002B02D00123FB7301E00023FB73FB7B1D
:10204C0018461437BD4680BC704780B483B000AFCF
:10205C0078600B467B8013467B707B78002B03D01B
:10206C007A887B681A6103E07B881A047B681A61A2
:10207C0000BF0C37BD4680BC704780B485B000AF44
:10208C0078600B467B807B68DB68FB607A88FB683A
:10209C0013401A04FB68D9437B880B401A437B68B6
:1020AC001A6100BF1437BD4680BC704780B586B03E
:1020BC0000AF78607B68002B01D101236CE27B6858
:1020CC001B6803F00103002B00F08780924B5B68C8
:1020DC0003F00C03042B0CD08F4B5B6803F00C0348
:1020EC00082B12D18C4B5B6803F48033B3F5803F23
:1020FC000BD1894B1B6803F40033002B6CD07B682D
:10210C005B68002B68D1012346E27B685B68B3F502
:10211C00803F06D1804B1B687F4A43F480331360A9
:10212C002EE07B685B68002B0CD17B4B1B687A4ADA
:10213C0023F480331360784B1B68774A23F4802395
:10214C0013601DE07B685B68B3F5A02F0CD1724B5C
:10215C001B68714A43F4802313606F4B1B686E4AF3
:10216C0043F4803313600BE06B4B1B686A4A23F417
:10217C0080331360684B1B68674A23F48023136019
:10218C007B685B68002B13D0FFF792FC386108E08A
:10219C00FFF78EFC02463B69D31A642B01D903234B
:1021AC00FAE15D4B1B6803F40033002BF0D014E014
:1021BC00FFF77EFC386108E0FFF77AFC02463B69CA
:1021CC00D31A642B01D90323E6E1534B1B6803F4A8
:1021DC000033002BF0D100E000BF7B681B6803F0DC
:1021EC000203002B63D04C4B5B6803F00C03002BF9
:1021FC000BD0494B5B6803F00C03082B1CD1464BEE
:10220C005B6803F48033002B16D1434B1B6803F03F
:10221C000203002B05D07B681B69012B01D0012325
:10222C00BAE13D4B1B6823F0F8027B685B69DB006D
:10223C00394913430B603AE07B681B69002B20D0B3
:10224C00364B01221A60FFF733FC386108E0FFF7C8
:10225C002FFC02463B69D31A022B01D903239BE1C5
:10226C002D4B1B6803F00203002BF0D02A4B1B688C
:10227C0023F0F8027B685B69DB00274913430B6092
:10228C0015E0264B00221A60FFF712FC386108E0BB
:10229C00FFF70EFC02463B69D31A022B01D903232C
:1022AC007AE11D4B1B6803F00203002BF0D17B6815
:1022BC001B6803F00803002B3AD07B689B69002B4A
:1022CC0019D0174B01221A60FFF7F2FB386108E0B6
:1022DC00FFF7EEFB02463B69D31A022B01D903230D
:1022EC005AE10D4B5B6A03F00203002BF0D0012086
:1022FC0000F09AFA1CE00A4B00221A60FFF7D8FB98
:10230C0038610FE0FFF7D4FB02463B69D31A022B6E
:10231C0008D9032340E100BF0010024000004242F4
:10232C00800442429E4B5B6A03F00203002BE9D10E
:10233C007B681B6803F00403002B00F0A6800023CD
:10234C00FB75974BDB6903F08053002B0DD1944B3D
:10235C00DB69934A43F08053D361914BDB6903F003
:10236C008053BB60BB680123FB758E4B1B6803F469
:10237C008073002B18D18B4B1B688A4A43F48073F3
:10238C001360FFF795FB386108E0FFF791FB0246FD
:10239C003B69D31A642B01D90323FDE0814B1B68E5
:1023AC0003F48073002BF0D07B68DB68012B06D123
:1023BC007B4B1B6A7A4A43F0010313622DE07B6866
:1023CC00DB68002B0CD1764B1B6A754A23F001039A
:1023DC001362734B1B6A724A23F0040313621CE0F2
:1023EC007B68DB68052B0CD16D4B1B6A6C4A43F088
:1023FC00040313626A4B1B6A694A43F001031362BC
:10240C000BE0674B1B6A664A23F001031362644BB3
:10241C001B6A634A23F0040313627B68DB68002B9E
:10242C0015D0FFF745FB38610AE0FFF741FB024688
:10243C003B69D31A41F28832934201D90323ABE0B2
:10244C00574B1B6A03F00203002BEED014E0FFF78E
:10245C002FFB38610AE0FFF72BFB02463B69D31ACE
:10246C0041F28832934201D9032395E04C4B1B6A0D
:10247C0003F00203002BEED1FB7D012B05D1484B61
:10248C00DB69474A23F08053D3617B68DB69002BFF
:10249C0000F08180424B5B6803F00C03082B61D089
:1024AC007B68DB69022B46D13F4B00221A60FFF799
:1024BC00FFFA386108E0FFF7FBFA02463B69D31AD2
:1024CC00022B01D9032367E0354B1B6803F0007323
:1024DC00002BF0D17B681B6AB3F5803F08D1304BE1
:1024EC005B6823F400327B689B682D4913434B6077
:1024FC002B4B5B6823F474127B68196A7B685B6AEC
:10250C000B43274913434B60274B01221A60FFF7FB
:10251C00CFFA386108E0FFF7CBFA02463B69D31AD1
:10252C00022B01D9032337E01D4B1B6803F000730A
:10253C00002BF0D02FE01C4B00221A60FFF7B8FAEA
:10254C00386108E0FFF7B4FA02463B69D31A022B54
:10255C0001D9032320E0124B1B6803F00073002BFE
:10256C00F0D118E07B68DB69012B01D1012313E06A
:10257C000B4B5B68FB60FB6803F480327B681B6A67
:10258C009A4206D1FB6803F470127B685B6A9A422C
:10259C0001D0012300E0002318461837BD4680BD4A
:1025AC0000100240007000406000424280B584B0D0
:1025BC0000AF786039607B68002B01D10123D0E03B
:1025CC006A4B1B6803F007033A689A4210D9674BB1
:1025DC001B6823F0070265493B6813430B60634B90
:1025EC001B6803F007033A689A4201D00123B8E054
:1025FC007B681B6803F00203002B20D07B681B68F0
:10260C0003F00403002B05D0594B5B68584A43F484
:10261C00E06353607B681B6803F00803002B05D054
:10262C00534B5B68524A43F460535360504B5B68A6
:10263C0023F0F0027B689B684D4913434B607B6829
:10264C001B6803F00103002B40D07B685B68012BF7
:10265C0007D1474B1B6803F40033002B15D1012322
:10266C007FE07B685B68022B07D1414B1B6803F052
:10267C000073002B09D1012373E03D4B1B6803F061
:10268C000203002B01D101236BE0394B5B6823F073
:10269C0003027B685B68364913434B60FFF708FA0B
:1026AC00F8600AE0FFF704FA0246FB68D31A41F21D
:1026BC008832934201D9032353E02D4B5B6803F01E
:1026CC000C027B685B689B009A42EBD1274B1B6822
:1026DC0003F007033A689A4210D2244B1B6823F08C
:1026EC00070222493B6813430B60204B1B6803F025
:1026FC0007033A689A4201D0012332E07B681B68D9
:10270C0003F00403002B08D0194B5B6823F4E06240
:10271C007B68DB68164913434B607B681B6803F0CE
:10272C000803002B09D0124B5B6823F460527B68C2
:10273C001B69DB000E4913434B6000F021F8024685
:10274C000B4B5B681B0903F00F030A49CB5C22FAA5
:10275C0003F3094A1360094B1B681846FFF766F927
:10276C00002318461037BD4680BD00BF0020024034
:10277C0000100240B0300008180000201C0000209F
:10278C0080B487B000AF0023FB600023BB60002344
:10279C007B6100237B6000233B611E4B5B68FB600D
:1027AC00FB6803F00C03042B02D0082B03D027E0AA
:1027BC00194B3B6127E0FB689B0C03F00F03174A96
:1027CC00D35C7B60FB6803F48033002B10D0114B7F
:1027DC005B685B0C03F00103114AD35CBB607B6844
:1027EC000D4A02FB03F2BB68B2FBF3F37B6104E01E
:1027FC007B680C4A02FB03F37B617B693B6102E063
:10280C00054B3B6100BF3B6918461C37BD4680BC7D
:10281C00704700BF0010024000127A00C030000860
:10282C00D030000800093D0080B485B000AF78605E
:10283C000A4B1B680A4AA2FB03235B0A7A6802FB59
:10284C0003F3FB6000BFFB685A1EFA60002BF9D142
:10285C0000BF00BF1437BD4680BC70471800002075
:10286C00D34D621080B582B000AF78607B68002BCE
:10287C0001D1012341E07B6893F83D30DBB2002BA2
:10288C0006D17B68002283F83C207868FEF7E0FFD5
:10289C007B68022283F83D207B681A687B680433CE
:1028AC001946104600F06EFA7B68012283F8462028
:1028BC007B68012283F83E207B68012283F83F204D
:1028CC007B68012283F840207B68012283F8412039
:1028DC007B68012283F842207B68012283F8432025
:1028EC007B68012283F844207B68012283F8452011
:1028FC007B68012283F83D20002318460837BD462B
:10290C0080BD000080B485B000AF78607B6893F820
:10291C003D30DBB2012B01D0012335E07B68022274
:10292C0083F83D207B681B68DA687B681B6842F083
:10293C000102DA607B681B68164A934209D07B68F7
:10294C001B68B3F1804F04D07B681B68124A93421A
:10295C0011D17B681B689B6803F00703FB60FB6865
:10296C00062B10D07B681B681A687B681B6842F0CA
:10297C0001021A6007E07B681B681A687B681B6899
:10298C0042F001021A60002318461437BD4680BC81
:10299C00704700BF002C01400004004080B582B09D
:1029AC0000AF78607B681B681B6903F00203022B85
:1029BC0022D17B681B68DB6803F00203022B1BD15E
:1029CC007B681B686FF002021A617B6801221A7720
:1029DC007B681B689B6903F00303002B03D07868AA
:1029EC0000F0B4F905E0786800F0A7F9786800F019
:1029FC00B6F97B6800221A777B681B681B6903F0A9
:102A0C000403042B22D17B681B68DB6803F00403EE
:102A1C00042B1BD17B681B686FF004021A617B6866
:102A2C0002221A777B681B689B6903F44073002BA6
:102A3C0003D0786800F08AF905E0786800F07DF939
:102A4C00786800F08CF97B6800221A777B681B6829
:102A5C001B6903F00803082B22D17B681B68DB6819
:102A6C0003F00803082B1BD17B681B686FF008026E
:102A7C001A617B6804221A777B681B68DB6903F098
:102A8C000303002B03D0786800F060F905E0786848
:102A9C0000F053F9786800F062F97B6800221A772D
:102AAC007B681B681B6903F01003102B22D17B6819
:102ABC001B68DB6803F01003102B1BD17B681B68B1
:102ACC006FF010021A617B6808221A777B681B680A
:102ADC00DB6903F44073002B03D0786800F036F9FF
:102AEC0005E0786800F029F9786800F038F97B681F
:102AFC0000221A777B681B681B6903F00103012B0A
:102B0C000ED17B681B68DB6803F00103012B07D136
:102B1C007B681B686FF001021A617868FEF760F839
:102B2C007B681B681B6903F08003802B0ED17B68CC
:102B3C001B68DB6803F08003802B07D17B681B6864
:102B4C006FF080021A61786800F06BFA7B681B6882
:102B5C001B6903F04003402B0ED17B681B68DB68BC
:102B6C0003F04003402B07D17B681B686FF04002D9
:102B7C001A61786800F0FCF87B681B681B6903F02D
:102B8C002003202B0ED17B681B68DB6803F020032D
:102B9C00202B07D17B681B686FF020021A617868C4
:102BAC0000F036FA00BF0837BD4680BD80B584B052
:102BBC0000AF786039600023FB737B6893F83C307E
:102BCC00012B01D10223B4E07B68012283F83C2065
:102BDC007B68022283F83D207B681B689B68BB6086
:102BEC00BB6823F07703BB60BB6823F47F43BB60F7
:102BFC007B681B68BA689A603B681B68B3F5005F1A
:102C0C003ED0B3F5005F00F28780B3F5805F00F033
:102C1C008680B3F5805F7FD8702B1AD0702B7BD851
:102C2C00602B50D0602B77D8502B3CD0502B73D8C6
:102C3C00402B58D0402B6FD8302B64D0302B6BD816
:102C4C00202B60D0202B67D8002B5CD0102B5AD0B7
:102C5C0062E07B6818683B6899683B685A683B6817
:102C6C00DB6800F05EF97B681B689B68BB60BB6827
:102C7C0043F07703BB607B681B68BA689A604FE0CF
:102C8C007B6818683B6899683B685A683B68DB68E6
:102C9C0000F047F97B681B689A687B681B6842F4F4
:102CAC0080429A603CE07B6818683B6859683B68D6
:102CBC00DB681A4600F0BEF87B681B68502118468A
:102CCC0000F015F92CE07B6818683B6859683B6884
:102CDC00DB681A4600F0DCF87B681B68602118463C
:102CEC0000F005F91CE07B6818683B6859683B6884
:102CFC00DB681A4600F09EF87B681B68402118467A
:102D0C0000F0F5F80CE07B681A683B681B68194604
:102D1C00104600F0ECF803E00123FB7300E000BF69
:102D2C007B68012283F83D207B68002283F83C20DD
:102D3C00FB7B18461037BD4680BD80B483B000AF16
:102D4C00786000BF0C37BD4680BC704780B483B040
:102D5C0000AF786000BF0C37BD4680BC704780B4B4
:102D6C0083B000AF786000BF0C37BD4680BC7047A5
:102D7C0080B483B000AF786000BF0C37BD4680BC18
:102D8C007047000080B485B000AF786039607B6814
:102D9C001B68FB607B68254A934207D07B68B3F1C4
:102DAC00804F03D07B68224A934208D1FB6823F002
:102DBC007003FB603B685B68FA681343FB607B68DD
:102DCC001A4A934207D07B68B3F1804F03D07B68DB
:102DDC00174A934208D1FB6823F44073FB603B68AD
:102DEC00DB68FA681343FB60FB6823F080023B68E6
:102DFC005B691343FB607B68FA681A603B689A68EE
:102E0C007B68DA623B681A687B689A627B68074A5F
:102E1C00934203D13B681A697B681A637B68012271
:102E2C005A6100BF1437BD4680BC7047002C01406E
:102E3C000004004080B487B000AFF860B9607A60DD
:102E4C00FB681B6A7B61FB681B6A23F00102FB6851
:102E5C001A62FB689B693B613B6923F0F0033B61A1
:102E6C007B681B013A6913433B617B6923F00A03BE
:102E7C007B617A69BB6813437B61FB683A699A6131
:102E8C00FB687A691A6200BF1C37BD4680BC70476C
:102E9C0080B487B000AFF860B9607A60FB681B6AD9
:102EAC007B61FB681B6A23F01002FB681A62FB68EB
:102EBC009B693B613B6923F470433B617B681B035B
:102ECC003A6913433B617B6923F0A0037B61BB68C8
:102EDC001B017A6913437B61FB683A699A61FB6851
:102EEC007A691A6200BF1C37BD4680BC704780B43B
:102EFC0085B000AF786039607B689B68FB60FB68CD
:102F0C0023F07003FB603A68FB68134343F007033C
:102F1C00FB607B68FA689A6000BF1437BD4680BCC2
:102F2C00704780B487B000AFF860B9607A603B60DE
:102F3C00FB689B687B617B6923F47F437B613B6807
:102F4C001A027B681A43BB6813437A6913437B618B
:102F5C00FB687A699A6000BF1C37BD4680BC70471D
:102F6C0080B485B000AF786039607B6893F83C30F2
:102F7C00012B01D1022341E07B68012283F83C2024
:102F8C007B68022283F83D207B681B685B68FB60D2
:102F9C007B681B689B68BB60FB6823F07003FB605D
:102FAC003B681B68FA681343FB607B681B68FA6814
:102FBC005A607B681B68144A934209D07B681B6873
:102FCC00B3F1804F04D07B681B68104A93420CD13C
:102FDC00BB6823F08003BB603B685B68BA68134333
:102FEC00BB607B681B68BA689A607B68012283F8B7
:102FFC003D207B68002283F83C20002318461437C0
:10300C00BD4680BC704700BF002C0140000400404E
:10301C0080B483B000AF786000BF0C37BD4680BC75
:10302C00704780B483B000AF786000BF0C37BD46EA
:10303C0080BC704770B500260C4D0D4C641BA41061
:10304C00A64209D100F022F800260A4D0A4C641B56
:10305C00A410A64205D170BD55F8043B9847013623
:10306C00EEE755F8043B98470136F2E7D4300008F8
:10307C00D4300008D4300008D8300008034602448D
:10308C00934200D1704703F8011BF9E7F8B500BF74
:10309C00F8BC08BC9E467047F8B500BFF8BC08BC2D
:0430AC009E46704785
:1030B00000000000000000000102030406070809E8
:1030C00002030405060708090A0B0C0D0E0F101069
:0430D00001020000F9
:0430D40031010008BE
:0430D8000D010008DE
:1030DC00C800000000100140001001400010014029
:1030EC0000200040008000000024F40010000000CC
:0430FC0001000000CF
:04000005080019C115
:00000001FF
